{
  "contractName": "BulkPayment",
  "abi": [
    {
      "inputs": [
        {
          "internalType": "address",
          "name": "ownerAddress",
          "type": "address"
        }
      ],
      "stateMutability": "nonpayable",
      "type": "constructor"
    },
    {
      "inputs": [
        {
          "internalType": "address payable[]",
          "name": "addressList",
          "type": "address[]"
        },
        {
          "internalType": "uint256[]",
          "name": "amounts",
          "type": "uint256[]"
        }
      ],
      "name": "sendPayments",
      "outputs": [],
      "stateMutability": "payable",
      "type": "function",
      "payable": true
    }
  ],
  "bytecode": "0x608060405234801561001057600080fd5b506040516106f53803806106f5833981810160405281019061003291906100db565b806000806101000a81548173ffffffffffffffffffffffffffffffffffffffff021916908373ffffffffffffffffffffffffffffffffffffffff16021790555050610108565b600080fd5b600073ffffffffffffffffffffffffffffffffffffffff82169050919050565b60006100a88261007d565b9050919050565b6100b88161009d565b81146100c357600080fd5b50565b6000815190506100d5816100af565b92915050565b6000602082840312156100f1576100f0610078565b5b60006100ff848285016100c6565b91505092915050565b6105de806101176000396000f3fe60806040526004361061001e5760003560e01c8063ea4789b514610023575b600080fd5b61003d600480360381019061003891906103e6565b61003f565b005b8051825114610083576040517f08c379a000000000000000000000000000000000000000000000000000000000815260040161007a906104e1565b60405180910390fd5b60005b815181101561011d578281815181106100a2576100a1610501565b5b602002602001015173ffffffffffffffffffffffffffffffffffffffff166108fc8383815181106100d6576100d5610501565b5b60200260200101519081150290604051600060405180830381858888f19350505050158015610109573d6000803e3d6000fd5b5080806101159061055f565b915050610086565b505050565b6000604051905090565b600080fd5b600080fd5b600080fd5b6000601f19601f8301169050919050565b7f4e487b7100000000000000000000000000000000000000000000000000000000600052604160045260246000fd5b6101848261013b565b810181811067ffffffffffffffff821117156101a3576101a261014c565b5b80604052505050565b60006101b6610122565b90506101c2828261017b565b919050565b600067ffffffffffffffff8211156101e2576101e161014c565b5b602082029050602081019050919050565b600080fd5b600073ffffffffffffffffffffffffffffffffffffffff82169050919050565b6000610223826101f8565b9050919050565b61023381610218565b811461023e57600080fd5b50565b6000813590506102508161022a565b92915050565b6000610269610264846101c7565b6101ac565b9050808382526020820190506020840283018581111561028c5761028b6101f3565b5b835b818110156102b557806102a18882610241565b84526020840193505060208101905061028e565b5050509392505050565b600082601f8301126102d4576102d3610136565b5b81356102e4848260208601610256565b91505092915050565b600067ffffffffffffffff8211156103085761030761014c565b5b602082029050602081019050919050565b6000819050919050565b61032c81610319565b811461033757600080fd5b50565b60008135905061034981610323565b92915050565b600061036261035d846102ed565b6101ac565b90508083825260208201905060208402830185811115610385576103846101f3565b5b835b818110156103ae578061039a888261033a565b845260208401935050602081019050610387565b5050509392505050565b600082601f8301126103cd576103cc610136565b5b81356103dd84826020860161034f565b91505092915050565b600080604083850312156103fd576103fc61012c565b5b600083013567ffffffffffffffff81111561041b5761041a610131565b5b610427858286016102bf565b925050602083013567ffffffffffffffff81111561044857610447610131565b5b610454858286016103b8565b9150509250929050565b600082825260208201905092915050565b7f41646472657373206c69737420616e6420616d6f756e7473206d75737420626560008201527f206f66207468652073616d65206c656e6774682e000000000000000000000000602082015250565b60006104cb60348361045e565b91506104d68261046f565b604082019050919050565b600060208201905081810360008301526104fa816104be565b9050919050565b7f4e487b7100000000000000000000000000000000000000000000000000000000600052603260045260246000fd5b7f4e487b7100000000000000000000000000000000000000000000000000000000600052601160045260246000fd5b600061056a82610319565b91507fffffffffffffffffffffffffffffffffffffffffffffffffffffffffffffffff82141561059d5761059c610530565b5b60018201905091905056fea264697066735822122006f5d9776208032c67e727b0f34f996a03a08a03fca5d01e9c13e876917b991864736f6c634300080b0033",
  "immutableReferences": {},
  "source": "// SPDX-License-Identifier: MIT\npragma solidity >=0.4.22 <0.9.0;\n\ncontract BulkPayment {\n  address owner;\n\n  constructor(address ownerAddress) {\n    owner = ownerAddress;\n  }\n\n  function sendPayments(address payable[] memory addressList, uint[] memory amounts) payable public {\n    require(addressList.length == amounts.length, 'Address list and amounts must be of the same length.');\n    for(uint i = 0; i < amounts.length; i++) {\n      addressList[i].transfer(amounts[i]);\n    }\n  }\n\n  modifier ownerOnly {\n    require(msg.sender == owner);\n    _;\n  }\n}\n",
  "sourcePath": "/var/www/html/dapp30/bulk-payment/contracts/BulkPayment.sol",
  "compiler": {
    "name": "solc",
    "version": "0.8.11+commit.d7f03943.Emscripten.clang"
  },
  "schemaVersion": "3.4.4",
  "updatedAt": "2022-05-02T21:19:06.254Z",
  "networkType": "ethereum",
  "devdoc": {
    "kind": "dev",
    "methods": {},
    "version": 1
  },
  "userdoc": {
    "kind": "user",
    "methods": {},
    "version": 1
  }
}